{
  "_format": "hh-sol-artifact-1",
  "contractName": "Flipper",
  "sourceName": "contracts/Flipper.sol",
  "abi": [
    {
      "inputs": [
        {
          "internalType": "bool",
          "name": "_initvalue",
          "type": "bool"
        }
      ],
      "stateMutability": "nonpayable",
      "type": "constructor"
    },
    {
      "inputs": [],
      "name": "flip",
      "outputs": [],
      "stateMutability": "nonpayable",
      "type": "function"
    },
    {
      "inputs": [],
      "name": "get",
      "outputs": [
        {
          "internalType": "bool",
          "name": "",
          "type": "bool"
        }
      ],
      "stateMutability": "view",
      "type": "function"
    }
  ],
  "bytecode": "0x608060405234801561001057600080fd5b506040516106dc3803806106dc8339818101604052810190610032919061015d565b61005e6040518060600160405280602a81526020016106b2602a91398261007d60201b6101331760201c565b806000806101000a81548160ff02191690831515021790555050610281565b61011b82826040516024016100939291906101ce565b6040516020818303038152906040527fc3b55635000000000000000000000000000000000000000000000000000000007bffffffffffffffffffffffffffffffffffffffffffffffffffffffff19166020820180517bffffffffffffffffffffffffffffffffffffffffffffffffffffffff838183161783525050505061011f60201b60201c565b5050565b60008151905060006a636f6e736f6c652e6c6f679050602083016000808483855afa5050505050565b6000815190506101578161026a565b92915050565b60006020828403121561016f57600080fd5b600061017d84828501610148565b91505092915050565b61018f8161021a565b82525050565b60006101a0826101fe565b6101aa8185610209565b93506101ba818560208601610226565b6101c381610259565b840191505092915050565b600060408201905081810360008301526101e88185610195565b90506101f76020830184610186565b9392505050565b600081519050919050565b600082825260208201905092915050565b60008115159050919050565b60005b83811015610244578082015181840152602081019050610229565b83811115610253576000848401525b50505050565b6000601f19601f8301169050919050565b6102738161021a565b811461027e57600080fd5b50565b610422806102906000396000f3fe608060405234801561001057600080fd5b50600436106100365760003560e01c80636d4ce63c1461003b578063cde4efa914610059575b600080fd5b610043610063565b60405161005091906102e2565b60405180910390f35b610061610079565b005b60008060009054906101000a900460ff16905090565b61010a6040518060400160405280601181526020017f466c697070696e67206269742066726f6d00000000000000000000000000000081525060008054906101000a900460ff166040518060400160405280600481526020017f20746f200000000000000000000000000000000000000000000000000000000081525060008054906101000a900460ff16156101cf565b60008054906101000a900460ff16156000806101000a81548160ff021916908315150217905550565b6101cb82826040516024016101499291906102fd565b6040516020818303038152906040527fc3b55635000000000000000000000000000000000000000000000000000000007bffffffffffffffffffffffffffffffffffffffffffffffffffffffff19166020820180517bffffffffffffffffffffffffffffffffffffffffffffffffffffffff8381831617835250505050610271565b5050565b61026b848484846040516024016101e9949392919061032d565b6040516020818303038152906040527f3f8a701d000000000000000000000000000000000000000000000000000000007bffffffffffffffffffffffffffffffffffffffffffffffffffffffff19166020820180517bffffffffffffffffffffffffffffffffffffffffffffffffffffffff8381831617835250505050610271565b50505050565b60008151905060006a636f6e736f6c652e6c6f679050602083016000808483855afa5050505050565b6102a38161039c565b82525050565b60006102b482610380565b6102be818561038b565b93506102ce8185602086016103a8565b6102d7816103db565b840191505092915050565b60006020820190506102f7600083018461029a565b92915050565b6000604082019050818103600083015261031781856102a9565b9050610326602083018461029a565b9392505050565b6000608082019050818103600083015261034781876102a9565b9050610356602083018661029a565b818103604083015261036881856102a9565b9050610377606083018461029a565b95945050505050565b600081519050919050565b600082825260208201905092915050565b60008115159050919050565b60005b838110156103c65780820151818401526020810190506103ab565b838111156103d5576000848401525b50505050565b6000601f19601f830116905091905056fea2646970667358221220a6f1ad9f050d7c1da0cb48b48f8908b2bbc17e2c51eb0258984a00ae7fd1f02264736f6c634300080400334465706c6f79696e67206120466c6970706572207769746820696e697476616c75652073657420746f3a",
  "linkReferences": {},
  "deployedLinkReferences": {}
}